:100000000C942A000C943F000C943F000C943F0089
:100010000C943F000C943F000C943F000C943F0064
:100020000C943F000C943F000C943F000C943F0054
:100030000C943F000C943F000C943F000C943F0044
:100040000C943F000C943F000C943F000C943F0034
:100050000C943F0011241FBECFE5D8E0DEBFCDBF1A
:1000600011E0A0E6B0E0EEECF2E202C005900D92E5
:10007000A836B107D9F70E94A4100C9465110C940E
:100080000000EF92FF920F931F937B018C0120E001
:1000900030E040E05FE40E94ED0388238CF0C8016B
:1000A000B70120E030E040E05FE40E94B9010E9427
:1000B000AB049B01AC01205030404040504806C08A
:1000C000C801B7010E94AB049B01AC01B901CA0190
:1000D0001F910F91FF90EF900895A0E0B0E0E3E74B
:1000E000F0E00C942E11DC012B01FA019C9192306E
:1000F00008F439C1EB018881823008F433C19430AF
:1001000069F4843009F02FC111969C91119789816F
:10011000981709F428C1A0E6B0E025C1843009F49D
:1001200021C18230A9F4923009F01DC19A01AD01BC
:1001300088E0EA010990AE01E90109929E0181502F
:10014000C1F7E201898111969C918923818308C1BD
:10015000923009F407C112962D903C901397EB0151
:100160008A819B811496AD90BD90CD90DC901797BD
:10017000EC80FD800E811F819101281B390BB90194
:1001800037FF04C066277727621B730B6032710547
:100190000CF061C0121613066CF537014801062EEB
:1001A00004C096948794779467940A94D2F721E0D8
:1001B00030E040E050E004C0220F331F441F551FC1
:1001C0006A95D2F721503040404050402E213F21C7
:1001D00040235123211531054105510521F021E02E
:1001E00030E040E050E079018A01E628F72808294C
:1001F00019293CC0232BD1F1260E371E35014601AB
:10020000062E04C096948794779467940A94D2F744
:1002100021E030E040E050E004C0220F331F441FD3
:10022000551F6A95D2F721503040404050402A2156
:100230003B214C215D21211531054105510521F05E
:1002400021E030E040E050E059016A01A628B728DB
:10025000C828D9280BC0821593052CF01C01AA24AC
:10026000BB24650103C0EE24FF24870111969C91F5
:10027000D20111968C91981709F445C0992339F051
:10028000A80197012A193B094C095D0906C0A6017E
:1002900095012E193F09400B510B57FD08C01182E3
:1002A0003382228224833583468357831DC081E0B5
:1002B00081833382228288279927DC01821B930B5A
:1002C000A40BB50B84839583A683B7830DC0220F3F
:1002D000331F441F551F24833583468357838281F0
:1002E000938101979383828324813581468157814D
:1002F000DA01C9010197A109B1098F5F9F4FAF4F83
:10030000BF4328F30BC0918333822282EA0CFB1C8B
:100310000C1D1D1DE482F5820683178383E0808314
:10032000248135814681578157FF1AC0C901AA2708
:1003300097FDA095BA2F81709070A070B0705695FF
:10034000479537952795822B932BA42BB52B848328
:100350009583A683B7838281938101969383828359
:10036000DF0101C0D201CD01CDB7DEB7E2E10C94CF
:100370004A11A0E2B0E0EFEBF1E00C943A1169838E
:100380007A838B839C832D833E834F835887E9E058
:10039000EE2EF12CEC0EFD1ECE010196B7010E944F
:1003A00023068E010F5E1F4FCE010596B8010E94F5
:1003B00023068A8991E089278A8BC701B801AE019B
:1003C000475E5F4F0E946D000E944E05A096E6E0DA
:1003D0000C945611A0E2B0E0E0EFF1E00C943A1179
:1003E00069837A838B839C832D833E834F835887D5
:1003F000F9E0EF2EF12CEC0EFD1ECE010196B701B7
:100400000E9423068E010F5E1F4FCE010596B80194
:100410000E942306C701B801AE01475E5F4F0E94EC
:100420006D000E944E05A096E6E00C945611A0E2E5
:10043000B0E0EDE1F2E00C942E1169837A838B83B6
:100440009C832D833E834F835887CE010196BE0146
:10045000675F7F4F0E942306CE010596BE016F5E47
:100460007F4F0E9423069985923088F089898230D7
:10047000C8F0943019F4823051F404C0843029F467
:10048000923081F480E690E0C6C0923049F420E0DA
:100490009A858A89981321E02A87CE010996BBC0E4
:1004A000823049F420E09A858A89981321E02A8BCA
:1004B000CE014196B0C02D843E844F8458886D880B
:1004C0007E888F88988CEE24FF248701AA24BB2481
:1004D000650140E050E060E070E0E0E0F0E0C10184
:1004E00081709070892BE9F0E60CF71C081D191D2E
:1004F0009A01AB012A0D3B1D4C1D5D1D80E090E073
:10050000A0E0B0E0E614F7040805190520F481E046
:1005100090E0A0E0B0E0BA01A901480F591F6A1F9E
:100520007B1FAA0CBB1CCC1CDD1C97FE08C081E005
:1005300090E0A0E0B0E0A82AB92ACA2ADB2A3196C6
:10054000E032F10549F0660C771C881C991C569422
:10055000479437942794C3CFFA85EA892B893C893D
:100560008B859C85280F391F2E5F3F4F17C0CA010E
:1005700081709070892B61F016950795F794E79438
:1005800080E090E0A0E0B0E8E82AF92A0A2B1B2BD3
:1005900076956795579547952F5F3F4F77FDE7CF46
:1005A0000CC0440F551F661F771F17FD4160EE0CEE
:1005B000FF1C001F111F21503040403090E05907B0
:1005C00090E0690790E4790760F32B8F3C8FDB01A3
:1005D000CA018F779070A070B07080349105A1052A
:1005E000B10561F447FD0AC0E114F10401051105EC
:1005F00029F0405C5F4F6F4F7F4F40781A8EFE1797
:1006000011F081E08A8F4D8F5E8F6F8F78A383E02A
:10061000898FCE0149960E944E05A096E2E10C9486
:100620004A11A8E1B0E0E7E1F3E00C9436116983E8
:100630007A838B839C832D833E834F835887B9E0D5
:10064000EB2EF12CEC0EFD1ECE010196B7010E949F
:1006500023068E010F5E1F4FCE010596B8010E9442
:1006600023062985223008F47EC03989323010F4FF
:10067000B8017CC08A859A8989278A87243011F03D
:10068000223031F4231709F06EC060E670E06EC0CE
:10069000343039F41D861E861F86188A1C861B86F8
:1006A00004C0323021F484E08987B7015FC02B8514
:1006B0003C858B899C89281B390B3C872B87ED84D3
:1006C000FE840F851889AD88BE88CF88D88CEA143F
:1006D000FB040C051D0540F4EE0CFF1C001F111F50
:1006E000215030403C872B8720E030E040E050E054
:1006F00080E090E0A0E0B0E460E070E0EA14FB0489
:100700000C051D0540F0282B392B4A2B5B2BEA18D2
:10071000FB080C091D09B695A79597958795EE0CD2
:10072000FF1C001F111F6F5F7F4F6F31710531F785
:10073000DA01C9018F779070A070B0708034910594
:10074000A105B10561F427FD0AC0E114F10401051A
:10075000110529F0205C3F4F4F4F5F4F20782D87C8
:100760003E874F87588BBE01675F7F4FCB010E944A
:100770004E056896EAE00C945211A8E1B0E0E3EC73
:10078000F3E00C943A1169837A838B839C832D83E5
:100790003E834F83588789E0E82EF12CEC0EFD1E36
:1007A000CE010196B7010E9423068E010F5E1F4FF6
:1007B000CE010596B8010E9423068985823040F05B
:1007C0008989823028F0C701B8010E949B0601C0C8
:1007D0008FEF6896E6E00C945611A8E1B0E0E3EFE5
:1007E000F3E00C943A1169837A838B839C832D8385
:1007F0003E834F83588789E0E82EF12CEC0EFD1ED6
:10080000CE010196B7010E9423068E010F5E1F4F95
:10081000CE010596B8010E9423068985823040F0FA
:100820008989823028F0C701B8010E949B0601C067
:100830008FEF6896E6E00C945611A8E1B0E0E3E291
:10084000F4E00C943A1169837A838B839C832D8323
:100850003E834F83588789E0E82EF12CEC0EFD1E75
:10086000CE010196B7010E9423068E010F5E1F4F35
:10087000CE010596B8010E9423068985823040F09A
:100880008989823028F0C701B8010E949B0601C007
:1008900081E06896E6E00C945611A8E0B0E0E3E54C
:1008A000F4E00C9437119B01AC0183E08983DA01F9
:1008B000C9018827B7FD83959927AA27BB27B82E9A
:1008C000211531054105510519F482E089833AC0AB
:1008D0008823A9F0203080E0380780E0480780E8CE
:1008E000580729F460E070E080E09FEC30C0EE240F
:1008F000FF248701E21AF30A040B150B02C07901E9
:100900008A018EE1C82ED12CDC82CB82ED82FE8260
:100910000F831887C801B7010E94FF0401971816BA
:10092000190684F4082E04C0EE0CFF1C001F111FD2
:100930000A94D2F7ED82FE820F831887C81AD90A6B
:10094000DC82CB82BA82CE0101960E944E052896A7
:10095000E9E00C945311ACE0B0E0E1EBF4E00C946E
:100960003E1169837A838B839C83CE010196BE01FD
:100970006B5F7F4F0E9423068D81823061F1823050
:1009800050F1843021F48E81882351F12EC02F81C3
:10099000388537FD20C06E812F3131051CF066236C
:1009A000F9F023C08EE190E0821B930B29853A85F4
:1009B0004B855C8504C056954795379527958A9554
:1009C000D2F76623B1F050954095309521953F4F71
:1009D0004F4F5F4F0EC020E030E040E050E009C0D4
:1009E0002FEF3FEF4FEF5FE704C020E030E040E043
:1009F00050E8B901CA012C96E2E00C945A11EF922A
:100A0000FF920F931F937B018C0180E0E81680E03A
:100A1000F80681E0080780E0180788F48FEFE816F1
:100A2000F1040105110531F028F088E090E0A0E024
:100A3000B0E017C080E090E0A0E0B0E012C080E03D
:100A4000E81680E0F80680E0080781E0180728F043
:100A500088E190E0A0E0B0E004C080E190E0A0E098
:100A6000B0E020E230E040E050E0281B390B4A0BB8
:100A70005B0B04C016950795F794E7948A95D2F717
:100A8000F701E859FF4F8081281B310941095109BD
:100A9000C9011F910F91FF90EF900895DF92EF929F
:100AA000FF920F931F93FC01E480F580068117816C
:100AB000D1808081823048F480E090E0A0E1B0E015
:100AC000E82AF92A0A2B1B2BA5C0843009F49FC001
:100AD000823021F4EE24FF24870105C0E114F104E3
:100AE0000105110519F4E0E0F0E096C06281738120
:100AF0009FEF623879070CF05BC022E83FEF261BBE
:100B0000370B2A3131052CF020E030E040E050E096
:100B10002AC0B801A701022E04C0769567955795A3
:100B200047950A94D2F781E090E0A0E0B0E004C0DD
:100B3000880F991FAA1FBB1F2A95D2F70197A109F9
:100B4000B1098E219F21A023B1230097A105B105F2
:100B500021F081E090E0A0E0B0E09A01AB01282B09
:100B6000392B4A2B5B2BDA01C9018F779070A0706B
:100B7000B07080349105A105B10539F427FF09C093
:100B8000205C3F4F4F4F5F4F04C0215C3F4F4F4FA2
:100B90005F4FE0E0F0E02030A0E03A07A0E04A0735
:100BA000A0E45A0710F0E1E0F0E079018A0127C0E3
:100BB0006038710564F5FB01E158FF4FD801C701AA
:100BC0008F779070A070B07080349105A105B10549
:100BD00039F4E7FE0DC080E490E0A0E0B0E004C08E
:100BE0008FE390E0A0E0B0E0E80EF91E0A1F1B1FA3
:100BF00017FF05C016950795F794E794319687E09F
:100C000016950795F794E7948A95D1F705C0EE24D9
:100C1000FF248701EFEFF0E06E2F67956627679559
:100C2000902F9F77D794DD24D7948E2F8695492FC8
:100C3000462B582F5D29B701CA011F910F91FF90D4
:100C4000EF90DF900895FC01DB014081518122810A
:100C5000622F6F7770E0221F2227221F9381892F36
:100C6000880F822B282F30E0991F9927991F119602
:100C70009C93119721153105A9F541155105610581
:100C8000710511F482E037C082E89FEF13969C93C0
:100C90008E9312979A01AB0167E0220F331F441F16
:100CA000551F6A95D1F783E08C930DC0220F331F37
:100CB000441F551F12968D919C911397019713967F
:100CC0009C938E931297203080E0380780E048078D
:100CD00080E4580758F314962D933D934D935C93FD
:100CE000179708952F3F310579F441155105610596
:100CF000710519F484E08C93089564FF03C081E0CA
:100D00008C9312C01C9210C02F57304013963C9306
:100D10002E93129783E08C9387E0440F551F661F34
:100D2000771F8A95D1F7706414964D935D936D93F8
:100D30007C93179708951F93DC01FB019C919230DF
:100D400008F447C08081823008F443C0943051F4E5
:100D500011961C91843099F58181682F70E0611B98
:100D600071093FC0843021F0923031F48230B9F102
:100D70008181882389F12DC011961C9111978230B1
:100D8000F1F081811817D9F412962D913C911397A7
:100D9000828193818217930794F028173907BCF05A
:100DA00014968D919D910D90BC91A02D248135813B
:100DB00046815781281739074A075B0718F4112322
:100DC00041F00AC082179307A407B50740F4112326
:100DD00019F061E070E005C06FEF7FEF02C060E0E6
:100DE00070E0CB011F910895DF93CF93CDB7DEB7AD
:100DF000E9E2F0E087E68083E0E4F0E01082EBE2F5
:100E0000F0E01082EAE2F0E088E18083E0E4F0E0E4
:100E100086E88083CF91DF910895DF93CF930F927F
:100E2000CDB7DEB78983ECE2F0E089818083EBE225
:100E3000F0E08081829586958770882F90E08170A0
:100E400090700097A1F3ABE2B0E0EBE2F0E08081BC
:100E500080648C930F90CF91DF910895DF93CF93AF
:100E6000CDB7DEB7EBE2F0E080818823DCF7ECE27F
:100E7000F0E08081CF91DF910895DF93CF9300D090
:100E80000F92CDB7DEB79B838A83198219820EC079
:100E90008981282F30E08A819B81FC01E20FF31FBA
:100EA00080810E940D0789818F5F89838981282F26
:100EB00030E08A819B81FC01E20FF31F808188234F
:100EC00039F70F900F900F90CF91DF910895DF9336
:100ED000CF93CDB7DEB72D970FB6F894DEBF0FBE18
:100EE000CDBF89836A834B838981843008F004C134
:100EF0008A81883008F000C18981282F30E03D8741
:100F00002C878C859D858130910509F44FC02C85F7
:100F10003D85223031052CF48C859D85009771F03C
:100F2000EBC02C853D852230310509F477C08C85D6
:100F30009D858330910509F4A9C0DEC08B81282FDF
:100F400030E03B872A878A859B850097D1F02A85E8
:100F50003B852130310509F0CFC0AAE3B0E0EAE3D8
:100F6000F0E08081482F8A81282F30E081E090E0F6
:100F7000022E02C0880F991F0A94E2F7842B8C93EB
:100F8000BBC0AAE3B0E0EAE3F0E08081482F8A81A9
:100F9000282F30E081E090E0022E02C0880F991FD8
:100FA0000A94E2F7809584238C93A6C08B81282F26
:100FB00030E039872887888599850097D1F0288582
:100FC00039852130310509F097C0A7E3B0E0E7E3A8
:100FD000F0E08081482F8A81282F30E081E090E086
:100FE000022E02C0880F991F0A94E2F7842B8C937B
:100FF00083C0A7E3B0E0E7E3F0E08081482F8A8177
:10100000282F30E081E090E0022E02C0880F991F67
:101010000A94E2F7809584238C936EC08B81282FED
:1010200030E03F832E838E819F810097D1F02E8107
:101030003F812130310509F05FC0A4E3B0E0E4E373
:10104000F0E08081482F8A81282F30E081E090E015
:10105000022E02C0880F991F0A94E2F7842B8C930A
:101060004BC0A4E3B0E0E4E3F0E08081482F8A8144
:10107000282F30E081E090E0022E02C0880F991FF7
:101080000A94E2F7809584238C9336C08B81282FB5
:1010900030E03D832C838C819D810097C9F02C81A9
:1010A0003D812130310541F5A1E3B0E0E1E3F0E01D
:1010B0008081482F8A81282F30E081E090E0022E45
:1010C00002C0880F991F0A94E2F7842B8C9314C0F6
:1010D000A1E3B0E0E1E3F0E08081482F8A81282F8E
:1010E00030E081E090E0022E02C0880F991F0A9440
:1010F000E2F7809584238C932D960FB6F894DEBF8B
:101100000FBECDBFCF91DF910895DF93CF93CDB7C1
:10111000DEB72D970FB6F894DEBF0FBECDBF898323
:101120006A834B838981843008F004C18A818830C6
:1011300008F000C18981282F30E03D872C878C85FD
:101140009D858130910509F44FC02C853D85223065
:1011500031052CF48C859D85009771F0EBC02C85B2
:101160003D852230310509F477C08C859D8583301B
:10117000910509F4A9C0DEC08B81282F30E03B87A0
:101180002A878A859B850097D1F02A853B85213067
:10119000310509F0CFC0ABE3B0E0EBE3F0E08081D4
:1011A000482F8A81282F30E081E090E0022E02C093
:1011B000880F991F0A94E2F7842B8C93BBC0ABE392
:1011C000B0E0EBE3F0E08081482F8A81282F30E007
:1011D00081E090E0022E02C0880F991F0A94E2F786
:1011E000809584238C93A6C08B81282F30E039878B
:1011F0002887888599850097D1F028853985213001
:10120000310509F097C0A8E3B0E0E8E3F0E08081A1
:10121000482F8A81282F30E081E090E0022E02C022
:10122000880F991F0A94E2F7842B8C9383C0A8E35C
:10123000B0E0E8E3F0E08081482F8A81282F30E099
:1012400081E090E0022E02C0880F991F0A94E2F715
:10125000809584238C936EC08B81282F30E03F8350
:101260002E838E819F810097D1F02E813F81213086
:10127000310509F05FC0A5E3B0E0E5E3F0E080816F
:10128000482F8A81282F30E081E090E0022E02C0B2
:10129000880F991F0A94E2F7842B8C934BC0A5E327
:1012A000B0E0E5E3F0E08081482F8A81282F30E02C
:1012B00081E090E0022E02C0880F991F0A94E2F7A5
:1012C000809584238C9336C08B81282F30E03D831A
:1012D0002C838C819D810097C9F02C813D81213028
:1012E000310541F5A2E3B0E0E2E3F0E08081482F70
:1012F0008A81282F30E081E090E0022E02C0880F22
:10130000991F0A94E2F7842B8C9314C0A2E3B0E0F7
:10131000E2E3F0E08081482F8A81282F30E081E0ED
:1013200090E0022E02C0880F991F0A94E2F7809580
:1013300084238C932D960FB6F894DEBF0FBECDBFDD
:10134000CF91DF910895DF93CF9300D000D00F921B
:10135000CDB7DEB78A836B8382E089838A8184304C
:1013600008F06BC08B81883008F067C08A81282F15
:1013700030E03D832C834C815D814130510541F14A
:101380008C819D818230910534F42C813D81211521
:10139000310561F052C04C815D814230510551F1FF
:1013A0008C819D8183309105B9F147C0E9E3F0E07C
:1013B0008081282F30E08B81882F90E0A90102C026
:1013C000559547958A95E2F7CA018170898335C0A2
:1013D000E6E3F0E08081282F30E08B81882F90E0D9
:1013E000A90102C0559547958A95E2F7CA01817017
:1013F000898323C0E3E3F0E08081282F30E08B81F4
:10140000882F90E0A90102C0559547958A95E2F78B
:10141000CA018170898311C0E0E3F0E08081282F48
:1014200030E08B81882F90E0A90102C05595479547
:101430008A95E2F7CA018170898389810F900F90A4
:101440000F900F900F90CF91DF910895DF93CF937E
:1014500000D000D0CDB7DEB789836A83898184301C
:1014600090F58981282F30E03C832B838B819C81F0
:1014700081309105D1F02B813C81223031052CF453
:101480008B819C81009761F01EC02B813C812230B2
:10149000310581F08B819C818330910581F013C0EF
:1014A000EAE3F0E08A8180830EC0E7E3F0E08A811E
:1014B000808309C0E4E3F0E08A81808304C0E1E333
:1014C000F0E08A8180830F900F900F900F90CF9162
:1014D000DF910895DF93CF9300D000D0CDB7DEB772
:1014E00089836A838981843090F58981282F30E04F
:1014F0003C832B838B819C8181309105D1F02B81A2
:101500003C81223031052CF48B819C81009761F065
:101510001EC02B813C812230310581F08B819C8162
:101520008330910581F013C0EBE3F0E08A81808382
:101530000EC0E8E3F0E08A81808309C0E5E3F0E0D3
:101540008A81808304C0E2E3F0E08A8180830F9087
:101550000F900F900F90CF91DF910895DF93CF936D
:1015600000D000D0CDB7DEB78A8319828A8184305B
:1015700090F58A81282F30E03C832B838B819C81DE
:1015800081309105D1F02B813C81223031052CF442
:101590008B819C81009761F01EC02B813C812230A1
:1015A000310581F08B819C818330910581F013C0DE
:1015B000E9E3F0E0808189830EC0E6E3F0E080811A
:1015C000898309C0E3E3F0E08081898304C0E0E31C
:1015D000F0E08081898389810F900F900F900F90A8
:1015E000CF91DF910895DF93CF93CDB7DEB7A7E218
:1015F000B0E0E7E2F0E080818F778C93A7E2B0E083
:10160000E7E2F0E0808180648C93A7E2B0E0E7E25B
:10161000F0E080818F7D8C93A6E2B0E0E6E2F0E01E
:1016200080818F7D8C93A6E2B0E0E6E2F0E08081DD
:1016300084608C93A6E2B0E0E6E2F0E08081826014
:101640008C93A6E2B0E0E6E2F0E080818E7F8C939E
:10165000A6E2B0E0E6E2F0E0808180688C93CF9172
:10166000DF910895DF93CF9300D00F92CDB7DEB70F
:101670008B831A8219828B818032C8F5A7E2B0E091
:10168000E7E2F0E08081807E8C93A7E2B0E0E7E2C1
:10169000F0E090818B81892B8C93A6E2B0E0E6E2AA
:1016A000F0E0808180648C93E6E2F0E080818295B6
:1016B0008F70882F90E0817090700097A9F3E6E218
:1016C000F0E0808182958F70882F90E0817090701B
:1016D000882369F0A6E2B0E0E6E2F0E08081806174
:1016E0008C93E4E2F0E0808191819A8389838981FF
:1016F0009A810F900F900F90CF91DF910895DF9313
:10170000CF93CDB7DEB72F970FB6F894DEBF0FBEDD
:10171000CDBF8F8781E062E040E00E94850881E0D4
:1017200061E040E00E94850880E06F850E946A0ABF
:1017300081E060E041E00E94850880E090E0A0E068
:10174000B0E48B879C87AD87BE876B857C858D8554
:101750009E8520E030E04AE755E40E941702DC0154
:10176000CB018F839887A987BA876F817885898510
:101770009A8520E030E040E85FE30E941D04882362
:101780002CF481E090E09E838D833FC06F8178854B
:1017900089859A8520E03FEF4FE757E40E94BD031B
:1017A00018164CF56B857C858D859E8520E030E094
:1017B00040E251E40E941702DC01CB01BC01CD01E3
:1017C0000E944100DC01CB019E838D830FC080E924
:1017D00091E09C838B838B819C810197F1F79C83A3
:1017E0008B838D819E8101979E838D838D819E81C8
:1017F000009769F714C06F81788589859A850E9462
:101800004100DC01CB019E838D838D819E819A8373
:10181000898389819A810197F1F79A83898381E08D
:1018200060E040E00E9485082F960FB6F894DEBF76
:101830000FBECDBFCF91DF9108950F931F93DF931C
:10184000CF93CDB7DEB7C654D0400FB6F894DEBF05
:101850000FBECDBFFE01ED5BFF4F80E090E0A0EF3B
:10186000B1E480839183A283B3838E01015C1F4F17
:10187000FE01ED5BFF4F608171818281938120E0E9
:1018800030E04AE755E40E941702DC01CB01F80181
:1018900080839183A283B383FE01FF96608171816F
:1018A0008281938120E030E040E85FE30E941D04E4
:1018B00088232CF481E090E09EAF8DAF46C0FE01FE
:1018C000FF96608171818281938120E03FEF4FE735
:1018D00057E40E94BD03181664F5FE01ED5BFF4F4F
:1018E000608171818281938120E030E040E251E4A7
:1018F0000E941702DC01CB01BC01CD010E94410016
:10190000DC01CB019EAF8DAF0FC080E991E09CAFB1
:101910008BAF8BAD9CAD0197F1F79CAF8BAF8DADCD
:101920009EAD01979EAF8DAF8DAD9EAD009769F7CF
:1019300016C0FE01FF9660817181828193810E94B1
:101940004100DC01CB019EAF8DAF8DAD9EAD9AAF56
:1019500089AF89AD9AAD0197F1F79AAF89AF8CE362
:101960000E947F0B80E090E0A0EFB1E48DAB9EABD6
:10197000AFABB8AF6DA97EA98FA998AD20E030E0DC
:101980004AE755E40E941702DC01CB0189AB9AAB10
:10199000ABABBCAB69A97AA98BA99CA920E030E0CC
:1019A00040E85FE30E941D0488232CF481E090E06E
:1019B00098AB8FA73FC069A97AA98BA99CA920E001
:1019C0003FEF4FE757E40E94BD0318164CF56DA991
:1019D0007EA98FA998AD20E030E040E251E40E945A
:1019E0001702DC01CB01BC01CD010E944100DC01EA
:1019F000CB0198AB8FA70FC080E991E09EA78DA780
:101A00008DA59EA50197F1F79EA78DA78FA598A9F3
:101A1000019798AB8FA78FA598A9009769F714C075
:101A200069A97AA98BA99CA90E944100DC01CB017C
:101A300098AB8FA78FA598A99CA78BA78BA59CA5D2
:101A40000197F1F79CA78BA78CE00E947F0B80E0A9
:101A500090E0A0EFB1E48FA398A7A9A7BAA76FA1C0
:101A600078A589A59AA520E030E04AE755E40E94D0
:101A70001702DC01CB018BA39CA3ADA3BEA36BA17A
:101A80007CA18DA19EA120E030E040E85FE30E94B0
:101A90001D0488232CF481E090E09AA389A33FC021
:101AA0006BA17CA18DA19EA120E03FEF4FE757E401
:101AB0000E94BD0318164CF56FA178A589A59AA5BB
:101AC00020E030E040E251E40E941702DC01CB014B
:101AD000BC01CD010E944100DC01CB019AA389A386
:101AE0000FC080E991E098A38F8F8F8D98A1019707
:101AF000F1F798A38F8F89A19AA101979AA389A33F
:101B000089A19AA1009769F714C06BA17CA18DA14E
:101B10009EA10E944100DC01CB019AA389A389A167
:101B20009AA19E8F8D8F8D8D9E8D0197F1F79E8F3F
:101B30008D8F81E00E947F0B80E090E0A0EFB1E408
:101B4000898F9A8FAB8FBC8F698D7A8D8B8D9C8D91
:101B500020E030E04AE755E40E941702DC01CB01A7
:101B60008D8B9E8BAF8BB88F6D897E898F89988D79
:101B700020E030E040E85FE30E941D0488232CF45D
:101B800081E090E09C8B8B8B3FC06D897E898F8933
:101B9000988D20E03FEF4FE757E40E94BD031816F1
:101BA0004CF5698D7A8D8B8D9C8D20E030E040E284
:101BB00051E40E941702DC01CB01BC01CD010E945F
:101BC0004100DC01CB019C8B8B8B0FC080E991E045
:101BD0009A8B898B89899A890197F1F79A8B898BDE
:101BE0008B899C8901979C8B8B8B8B899C89009717
:101BF00069F714C06D897E898F89988D0E94410094
:101C0000DC01CB019C8B8B8B8B899C89988B8F877C
:101C10008F8598890197F1F7988B8F8782E00E94D2
:101C20007F0B80E090E0A0EFB1E48B879C87AD87CD
:101C3000BE876B857C858D859E8520E030E04AE7F8
:101C400055E40E941702DC01CB018F839887A98796
:101C5000BA876F81788589859A8520E030E040E8F1
:101C60005FE30E941D0488232CF481E090E09E83B2
:101C70008D833FC06F81788589859A8520E03FEF0D
:101C80004FE757E40E94BD0318164CF56B857C8521
:101C90008D859E8520E030E040E251E40E941702ED
:101CA000DC01CB01BC01CD010E944100DC01CB0174
:101CB0009E838D830FC080E991E09C838B838B8111
:101CC0009C810197F1F79C838B838D819E81019785
:101CD0009E838D838D819E81009769F714C06F81EB
:101CE000788589859A850E944100DC01CB019E831D
:101CF0008D838D819E819A83898389819A810197C1
:101D0000F1F79A838983CA5BDF4F0FB6F894DEBF81
:101D10000FBECDBFCF91DF911F910F910895DF933B
:101D2000CF93CDB7DEB72F970FB6F894DEBF0FBEB7
:101D3000CDBF8F8781E062E041E00E94850881E0AD
:101D400061E040E00E94850880E06F850E946A0A99
:101D500081E060E041E00E94850880E090E0A0E042
:101D6000B0E48B879C87AD87BE876B857C858D852E
:101D70009E8520E030E04AE755E40E941702DC012E
:101D8000CB018F839887A987BA876F8178858985EA
:101D90009A8520E030E040E85FE30E941D0488233C
:101DA0002CF481E090E09E838D833FC06F81788525
:101DB00089859A8520E03FEF4FE757E40E94BD03F5
:101DC00018164CF56B857C858D859E8520E030E06E
:101DD00040E251E40E941702DC01CB01BC01CD01BD
:101DE0000E944100DC01CB019E838D830FC080E9FE
:101DF00091E09C838B838B819C810197F1F79C837D
:101E00008B838D819E8101979E838D838D819E81A1
:101E1000009769F714C06F81788589859A850E943B
:101E20004100DC01CB019E838D838D819E819A834D
:101E3000898389819A810197F1F79A83898381E067
:101E400060E040E00E9485082F960FB6F894DEBF50
:101E50000FBECDBFCF91DF910895DF93CF9300D018
:101E6000CDB7DEB79A8389830BC0E981FA812081DF
:101E700089819A8101969A838983822F0E948F0E8D
:101E8000E981FA818081882381F70F900F90CF91AB
:101E9000DF910895DF93CF9300D0CDB7DEB789836C
:101EA0006A8389818823C1F089818330A8F48A817B
:101EB000882391F08A81813178F480E80E947F0B39
:101EC0008981813029F48A8181580E947F0B04C066
:101ED0008A8181540E947F0B0F900F90CF91DF91E8
:101EE0000895DF93CF93CDB7DEB781E00E947F0BDB
:101EF000CF91DF910895AF92BF92CF92DF92EF9290
:101F0000FF920F931F93DF93CF93CDB7DEB7609708
:101F10000FB6F894DEBF0FBECDBF69837A838B8383
:101F20009C832D833E834F835887E986FA860B87EF
:101F30001C87AD86BE86CF86D88A29813A814B819F
:101F40005C818D819E81AF81B88579018A01E81A13
:101F5000F90A0A0B1B0B2D8D3E8D4F8D58A18D85D7
:101F60009E85AF85B889281B390B4A0B5B0BC801CE
:101F7000B7010E94D2107B018C0129853A854B85DF
:101F80005C858D819E81AF81B885281B390B4A0BFA
:101F90005B0BC801B7010E94F110DA01C9019C0175
:101FA000AD018D859E85AF85B889820F931FA41FD3
:101FB000B51FBC01CD0160960FB6F894DEBF0FBE11
:101FC000CDBFCF91DF911F910F91FF90EF90DF90E8
:101FD000CF90BF90AF900895DF93CF93CDB7DEB78A
:101FE00080E060E040E00E94670780E061E040E060
:101FF0000E94670780E062E040E00E94670780E09F
:1020000063E040E00E94670780E064E040E00E94F7
:102010006707CF91DF910895AF92BF92CF92DF9281
:10202000EF92FF920F931F93DF93CF9300D000D0D6
:1020300000D0CDB7DEB78E838E810E94320B8D83A8
:102040008D81882F90E0AA2797FDA095BA2FBC011B
:10205000CD010E944D04DC01CB01BC01CD0129E280
:102060003CE54FE950E40E941702DC01CB01BC01C2
:10207000CD0120E030EC4FE754E40E941103DC0175
:10208000CB019C01AD0169E27CE58FE990E40E94FF
:102090001103DC01CB01BC01CD0120E030E040E8C0
:1020A0005FE30E94B901DC01CB01BC01CD0120E05E
:1020B00038ED46ED56E40E941702DC01CB0189831E
:1020C0009A83AB83BC8369817A818B819C810E94D6
:1020D000AB049B01AC0100D000D0EDB7FEB7319648
:1020E0008AE590E0A0E0B0E080839183A283B3838F
:1020F000CA01B90124EB31E940E050E00F2EF0E1D4
:10210000EF2EF1E2FF2EF1E00F2FF0E01F2FF02D68
:10211000AA24BB2465010E947B0F0F900F900F90A3
:102120000F90DC01CB0126960FB6F894DEBF0FBEF0
:10213000CDBFCF91DF911F910F91FF90EF90DF9076
:10214000CF90BF90AF900895DF93CF9300D000D091
:102150000F92CDB7DEB70E94EC0F0E94F30A0E94E7
:10216000F40680E00E940C108D8381E00E940C1028
:102170008C8382E00E940C108B8383E00E940C1001
:102180008A8384E00E940C1089838D818C3318F03F
:1021900086E60E940D078D81803118F783E70E9443
:1021A0000D07DFCF629FD001739FF001829FE00D8A
:1021B000F11D649FE00DF11D929FF00D839FF00DC6
:1021C000749FF00D659FF00D9927729FB00DE11D72
:1021D000F91F639FB00DE11DF91FBD01CF0111244F
:1021E000089597FB092E05260ED057FD04D014D074
:1021F0000AD0001C38F450954095309521953F4FFA
:102200004F4F5F4F0895F6F79095809570956195C3
:102210007F4F8F4F9F4F0895A1E21A2EAA1BBB1B21
:10222000FD010DC0AA1FBB1FEE1FFF1FA217B307A2
:10223000E407F50720F0A21BB30BE40BF50B661FB8
:10224000771F881F991F1A9469F76095709580957C
:1022500090959B01AC01BD01CF0108952F923F9253
:102260004F925F926F927F928F929F92AF92BF92A6
:10227000CF92DF92EF92FF920F931F93CF93DF9352
:10228000CDB7DEB7CA1BDB0B0FB6F894DEBF0FBEAF
:10229000CDBF09942A88398848885F846E847D84FC
:1022A0008C849B84AA84B984C884DF80EE80FD80FE
:1022B0000C811B81AA81B981CE0FD11D0FB6F89474
:0E22C000DEBF0FBECDBFED010895F894FFCF35
:1022CE0000000000000000000001020203030303EF
:1022DE0004040404040404040505050505050505A8
:1022EE000505050505050505060606060606060688
:1022FE000606060606060606060606060606060670
:10230E000606060606060606070707070707070757
:10231E00070707070707070707070707070707073F
:10232E00070707070707070707070707070707072F
:10233E00070707070707070707070707070707071F
:10234E000707070707070707080808080808080807
:10235E0008080808080808080808080808080808EF
:10236E0008080808080808080808080808080808DF
:10237E0008080808080808080808080808080808CF
:10238E0008080808080808080808080808080808BF
:10239E0008080808080808080808080808080808AF
:1023AE00080808080808080808080808080808089F
:1023BE00080808080808080808080808080808088F
:0823CE000808080808080808C7
:00000001FF
